{
  "_format": "hh3-artifact-1",
  "contractName": "Voting",
  "sourceName": "contracts/Voting.sol",
  "abi": [
    {
      "inputs": [],
      "stateMutability": "nonpayable",
      "type": "constructor"
    },
    {
      "inputs": [],
      "name": "AlreadyVoted",
      "type": "error"
    },
    {
      "inputs": [],
      "name": "ElectionAlreadyStarted",
      "type": "error"
    },
    {
      "inputs": [],
      "name": "ElectionNotStarted",
      "type": "error"
    },
    {
      "inputs": [],
      "name": "InvalidCandidate",
      "type": "error"
    },
    {
      "inputs": [],
      "name": "OnlyAdminAllowed",
      "type": "error"
    },
    {
      "anonymous": false,
      "inputs": [
        {
          "indexed": true,
          "internalType": "uint256",
          "name": "candidateId",
          "type": "uint256"
        },
        {
          "indexed": false,
          "internalType": "string",
          "name": "name",
          "type": "string"
        }
      ],
      "name": "CandidateAdded",
      "type": "event"
    },
    {
      "anonymous": false,
      "inputs": [
        {
          "indexed": true,
          "internalType": "address",
          "name": "admin",
          "type": "address"
        },
        {
          "indexed": false,
          "internalType": "uint256",
          "name": "timestamp",
          "type": "uint256"
        }
      ],
      "name": "ElectionCreated",
      "type": "event"
    },
    {
      "anonymous": false,
      "inputs": [],
      "name": "ElectionStarted",
      "type": "event"
    },
    {
      "anonymous": false,
      "inputs": [
        {
          "indexed": true,
          "internalType": "address",
          "name": "voter",
          "type": "address"
        },
        {
          "indexed": true,
          "internalType": "uint256",
          "name": "candidateId",
          "type": "uint256"
        },
        {
          "indexed": false,
          "internalType": "uint256",
          "name": "newVoteCount",
          "type": "uint256"
        }
      ],
      "name": "VoteCasted",
      "type": "event"
    },
    {
      "inputs": [
        {
          "internalType": "string",
          "name": "_name",
          "type": "string"
        }
      ],
      "name": "addCandidate",
      "outputs": [],
      "stateMutability": "nonpayable",
      "type": "function"
    },
    {
      "inputs": [],
      "name": "admin",
      "outputs": [
        {
          "internalType": "address",
          "name": "",
          "type": "address"
        }
      ],
      "stateMutability": "view",
      "type": "function"
    },
    {
      "inputs": [
        {
          "internalType": "uint256",
          "name": "",
          "type": "uint256"
        }
      ],
      "name": "candidates",
      "outputs": [
        {
          "internalType": "uint256",
          "name": "id",
          "type": "uint256"
        },
        {
          "internalType": "string",
          "name": "name",
          "type": "string"
        },
        {
          "internalType": "uint256",
          "name": "voteCount",
          "type": "uint256"
        }
      ],
      "stateMutability": "view",
      "type": "function"
    },
    {
      "inputs": [],
      "name": "candidatesCount",
      "outputs": [
        {
          "internalType": "uint256",
          "name": "",
          "type": "uint256"
        }
      ],
      "stateMutability": "view",
      "type": "function"
    },
    {
      "inputs": [],
      "name": "electionStarted",
      "outputs": [
        {
          "internalType": "bool",
          "name": "",
          "type": "bool"
        }
      ],
      "stateMutability": "view",
      "type": "function"
    },
    {
      "inputs": [],
      "name": "getAllCandidates",
      "outputs": [
        {
          "components": [
            {
              "internalType": "uint256",
              "name": "id",
              "type": "uint256"
            },
            {
              "internalType": "string",
              "name": "name",
              "type": "string"
            },
            {
              "internalType": "uint256",
              "name": "voteCount",
              "type": "uint256"
            }
          ],
          "internalType": "struct Voting.Candidate[]",
          "name": "",
          "type": "tuple[]"
        }
      ],
      "stateMutability": "view",
      "type": "function"
    },
    {
      "inputs": [
        {
          "internalType": "address",
          "name": "",
          "type": "address"
        }
      ],
      "name": "hasVoted",
      "outputs": [
        {
          "internalType": "bool",
          "name": "",
          "type": "bool"
        }
      ],
      "stateMutability": "view",
      "type": "function"
    },
    {
      "inputs": [],
      "name": "startElection",
      "outputs": [],
      "stateMutability": "nonpayable",
      "type": "function"
    },
    {
      "inputs": [
        {
          "internalType": "uint256",
          "name": "_candidateId",
          "type": "uint256"
        }
      ],
      "name": "vote",
      "outputs": [],
      "stateMutability": "nonpayable",
      "type": "function"
    }
  ],
  "bytecode": "0x60a060405234801561000f575f80fd5b503373ffffffffffffffffffffffffffffffffffffffff1660808173ffffffffffffffffffffffffffffffffffffffff168152505060805173ffffffffffffffffffffffffffffffffffffffff167fc91fe4766a7a928d6625f66818425dc115b03c854a8ed8d28de2f34a684e0f1a4260405161008c91906100b1565b60405180910390a26100ca565b5f819050919050565b6100ab81610099565b82525050565b5f6020820190506100c45f8301846100a2565b92915050565b6080516111af6100f05f395f81816105d50152818161079301526108b301526111af5ff3fe608060405234801561000f575f80fd5b5060043610610091575f3560e01c80633477ee2e116100645780633477ee2e1461011d578063462e91ec1461014f57806362d73eb81461016b578063d5346da114610175578063f851a4401461019357610091565b80630121b93f1461009557806309eef43e146100b15780632d35a8a2146100e15780632e6997fe146100ff575b5f80fd5b6100af60048036038101906100aa919061092f565b6101b1565b005b6100cb60048036038101906100c691906109b4565b61039f565b6040516100d891906109f9565b60405180910390f35b6100e96103bc565b6040516100f69190610a21565b60405180910390f35b6101076103c2565b6040516101149190610bdb565b60405180910390f35b6101376004803603810190610132919061092f565b610527565b60405161014693929190610c43565b60405180910390f35b61016960048036038101906101649190610ce0565b6105d3565b005b610173610791565b005b61017d6108a1565b60405161018a91906109f9565b60405180910390f35b61019b6108b1565b6040516101a89190610d3a565b60405180910390f35b5f8054906101000a900460ff166101f4576040517fe55099ca00000000000000000000000000000000000000000000000000000000815260040160405180910390fd5b60035f3373ffffffffffffffffffffffffffffffffffffffff1673ffffffffffffffffffffffffffffffffffffffff1681526020019081526020015f205f9054906101000a900460ff1615610275576040517f7c9a1cf900000000000000000000000000000000000000000000000000000000815260040160405180910390fd5b5f811480610284575060015481115b156102bb576040517fe66ea08f00000000000000000000000000000000000000000000000000000000815260040160405180910390fd5b600160035f3373ffffffffffffffffffffffffffffffffffffffff1673ffffffffffffffffffffffffffffffffffffffff1681526020019081526020015f205f6101000a81548160ff02191690831515021790555060025f8281526020019081526020015f206002015f81548092919061033490610d80565b9190505550803373ffffffffffffffffffffffffffffffffffffffff167fcb87df07b1c304492bd875a5c8b98672eca500939412809ea229afef1d74518860025f8581526020019081526020015f20600201546040516103949190610a21565b60405180910390a350565b6003602052805f5260405f205f915054906101000a900460ff1681565b60015481565b60605f60015467ffffffffffffffff8111156103e1576103e0610dc7565b5b60405190808252806020026020018201604052801561041a57816020015b6104076108d5565b8152602001906001900390816103ff5790505b5090505f5b60015481101561051f5760025f6001836104399190610df4565b81526020019081526020015f206040518060600160405290815f820154815260200160018201805461046a90610e54565b80601f016020809104026020016040519081016040528092919081815260200182805461049690610e54565b80156104e15780601f106104b8576101008083540402835291602001916104e1565b820191905f5260205f20905b8154815290600101906020018083116104c457829003601f168201915b5050505050815260200160028201548152505082828151811061050757610506610e84565b5b6020026020010181905250808060010191505061041f565b508091505090565b6002602052805f5260405f205f91509050805f01549080600101805461054c90610e54565b80601f016020809104026020016040519081016040528092919081815260200182805461057890610e54565b80156105c35780601f1061059a576101008083540402835291602001916105c3565b820191905f5260205f20905b8154815290600101906020018083116105a657829003601f168201915b5050505050908060020154905083565b7f000000000000000000000000000000000000000000000000000000000000000073ffffffffffffffffffffffffffffffffffffffff163373ffffffffffffffffffffffffffffffffffffffff1614610658576040517f8eef6a6e00000000000000000000000000000000000000000000000000000000815260040160405180910390fd5b5f8054906101000a900460ff161561069c576040517fd54e430700000000000000000000000000000000000000000000000000000000815260040160405180910390fd5b60015f8154809291906106ae90610d80565b91905055506040518060600160405280600154815260200183838080601f0160208091040260200160405190810160405280939291908181526020018383808284375f81840152601f19601f8201169050808301925050505050505081526020015f81525060025f60015481526020019081526020015f205f820151815f01556020820151816001019081610743919061104e565b50604082015181600201559050506001547fe83b2a43e7e82d975c8a0a6d2f045153c869e111136a34d1889ab7b598e396a38383604051610785929190611157565b60405180910390a25050565b7f000000000000000000000000000000000000000000000000000000000000000073ffffffffffffffffffffffffffffffffffffffff163373ffffffffffffffffffffffffffffffffffffffff1614610816576040517f8eef6a6e00000000000000000000000000000000000000000000000000000000815260040160405180910390fd5b5f8054906101000a900460ff161561085a576040517fd54e430700000000000000000000000000000000000000000000000000000000815260040160405180910390fd5b60015f806101000a81548160ff0219169083151502179055507fc475c26aa25ed8e85a7faa790e5f63b5d7ee1025f12821f4c9bfddd36ab4d11260405160405180910390a1565b5f8054906101000a900460ff1681565b7f000000000000000000000000000000000000000000000000000000000000000081565b60405180606001604052805f8152602001606081526020015f81525090565b5f80fd5b5f80fd5b5f819050919050565b61090e816108fc565b8114610918575f80fd5b50565b5f8135905061092981610905565b92915050565b5f60208284031215610944576109436108f4565b5b5f6109518482850161091b565b91505092915050565b5f73ffffffffffffffffffffffffffffffffffffffff82169050919050565b5f6109838261095a565b9050919050565b61099381610979565b811461099d575f80fd5b50565b5f813590506109ae8161098a565b92915050565b5f602082840312156109c9576109c86108f4565b5b5f6109d6848285016109a0565b91505092915050565b5f8115159050919050565b6109f3816109df565b82525050565b5f602082019050610a0c5f8301846109ea565b92915050565b610a1b816108fc565b82525050565b5f602082019050610a345f830184610a12565b92915050565b5f81519050919050565b5f82825260208201905092915050565b5f819050602082019050919050565b610a6c816108fc565b82525050565b5f81519050919050565b5f82825260208201905092915050565b5f5b83811015610aa9578082015181840152602081019050610a8e565b5f8484015250505050565b5f601f19601f8301169050919050565b5f610ace82610a72565b610ad88185610a7c565b9350610ae8818560208601610a8c565b610af181610ab4565b840191505092915050565b5f606083015f830151610b115f860182610a63565b5060208301518482036020860152610b298282610ac4565b9150506040830151610b3e6040860182610a63565b508091505092915050565b5f610b548383610afc565b905092915050565b5f602082019050919050565b5f610b7282610a3a565b610b7c8185610a44565b935083602082028501610b8e85610a54565b805f5b85811015610bc95784840389528151610baa8582610b49565b9450610bb583610b5c565b925060208a01995050600181019050610b91565b50829750879550505050505092915050565b5f6020820190508181035f830152610bf38184610b68565b905092915050565b5f82825260208201905092915050565b5f610c1582610a72565b610c1f8185610bfb565b9350610c2f818560208601610a8c565b610c3881610ab4565b840191505092915050565b5f606082019050610c565f830186610a12565b8181036020830152610c688185610c0b565b9050610c776040830184610a12565b949350505050565b5f80fd5b5f80fd5b5f80fd5b5f8083601f840112610ca057610c9f610c7f565b5b8235905067ffffffffffffffff811115610cbd57610cbc610c83565b5b602083019150836001820283011115610cd957610cd8610c87565b5b9250929050565b5f8060208385031215610cf657610cf56108f4565b5b5f83013567ffffffffffffffff811115610d1357610d126108f8565b5b610d1f85828601610c8b565b92509250509250929050565b610d3481610979565b82525050565b5f602082019050610d4d5f830184610d2b565b92915050565b7f4e487b71000000000000000000000000000000000000000000000000000000005f52601160045260245ffd5b5f610d8a826108fc565b91507fffffffffffffffffffffffffffffffffffffffffffffffffffffffffffffffff8203610dbc57610dbb610d53565b5b600182019050919050565b7f4e487b71000000000000000000000000000000000000000000000000000000005f52604160045260245ffd5b5f610dfe826108fc565b9150610e09836108fc565b9250828201905080821115610e2157610e20610d53565b5b92915050565b7f4e487b71000000000000000000000000000000000000000000000000000000005f52602260045260245ffd5b5f6002820490506001821680610e6b57607f821691505b602082108103610e7e57610e7d610e27565b5b50919050565b7f4e487b71000000000000000000000000000000000000000000000000000000005f52603260045260245ffd5b5f819050815f5260205f209050919050565b5f6020601f8301049050919050565b5f82821b905092915050565b5f60088302610f0d7fffffffffffffffffffffffffffffffffffffffffffffffffffffffffffffffff82610ed2565b610f178683610ed2565b95508019841693508086168417925050509392505050565b5f819050919050565b5f610f52610f4d610f48846108fc565b610f2f565b6108fc565b9050919050565b5f819050919050565b610f6b83610f38565b610f7f610f7782610f59565b848454610ede565b825550505050565b5f90565b610f93610f87565b610f9e818484610f62565b505050565b5b81811015610fc157610fb65f82610f8b565b600181019050610fa4565b5050565b601f82111561100657610fd781610eb1565b610fe084610ec3565b81016020851015610fef578190505b611003610ffb85610ec3565b830182610fa3565b50505b505050565b5f82821c905092915050565b5f6110265f198460080261100b565b1980831691505092915050565b5f61103e8383611017565b9150826002028217905092915050565b61105782610a72565b67ffffffffffffffff8111156110705761106f610dc7565b5b61107a8254610e54565b611085828285610fc5565b5f60209050601f8311600181146110b6575f84156110a4578287015190505b6110ae8582611033565b865550611115565b601f1984166110c486610eb1565b5f5b828110156110eb578489015182556001820191506020850194506020810190506110c6565b868310156111085784890151611104601f891682611017565b8355505b6001600288020188555050505b505050505050565b828183375f83830152505050565b5f6111368385610bfb565b935061114383858461111d565b61114c83610ab4565b840190509392505050565b5f6020820190508181035f83015261117081848661112b565b9050939250505056fea2646970667358221220fe6f324424a98380487e5132c0209c74d1fcc56f63082638d1993f0a3275d44364736f6c63430008180033",
  "linkReferences": {},
  "deployedLinkReferences": {},
  "immutableReferences": {
    "4": [
      {
        "length": 32,
        "start": 1493
      },
      {
        "length": 32,
        "start": 1939
      },
      {
        "length": 32,
        "start": 2227
      }
    ]
  },
  "inputSourceName": "project/contracts/Voting.sol",
  "buildInfoId": "solc-0_8_24-07114168f2ec33db603b480761c4fd91617fe833"
}